:020000040800F2
:10000000000400209D010008D1030008B903000886
:10001000CD030008E5010008310B000800000000D6
:10002000000000000000000000000000550500086E
:10003000E90100080000000011050008550700084C
:10004000B7010008B7010008B7010008B7010008B0
:10005000B7010008B7010008B7010008B7010008A0
:10006000B7010008B7010008B7010008B701000890
:10007000B7010008B7010008B7010008B701000880
:10008000B7010008B7010008B7010008B701000870
:10009000B7010008B7010008B7010008B701000860
:1000A000B7010008B7010008B7010008B701000850
:1000B000B7010008B7010008B7010008B701000840
:1000C000B7010008B7010008B7010008B701000830
:1000D000B7010008B7010008B7010008B701000820
:1000E000B7010008B7010008B7010008B701000810
:1000F000B7010008B7010008B7010008B701000800
:10010000B7010008B7010008B7010008B7010008EF
:10011000B7010008B7010008B7010008B7010008DF
:10012000B7010008B7010008B7010008B7010008CF
:10013000B7010008B7010008B7010008B7010008BF
:10014000B7010008B7010008B7010008B7010008AF
:10015000B7010008B7010008B7010008B70100089F
:10016000B7010008B7010008B7010008B70100088F
:10017000B7010008B7010008B7010008B70100087F
:10018000B7010008B7010008DFF80CD000F018F83C
:1001900000480047530B0008000400200648804731
:1001A00006480047FEE7FEE7FEE7FEE7FEE7FEE75C
:1001B000FEE7FEE7FEE7FEE75907000889010008B1
:1001C000064C074D06E0E06840F0010394E80700A4
:1001D00098471034AC42F6D3FFF7DAFF840B0008DF
:1001E000940B000800BFFEE7704700007CB5054691
:1001F0000E460121284600F08DF901208DF80400FB
:10020000009602208DF8050000208DF806008DF87C
:100210000700042D0ED004DC012D07D0022D0FD1D4
:1002200006E0082D08D0102D0AD107E0084C08E0A0
:10023000084C06E0084C04E0084C02E0084C00E0E2
:1002400000BF00BF6946204600F046F87CBD0000B4
:10025000000002400004024000080240000C02407E
:10026000001002407CB505460E460121284600F0EC
:1002700051F902208DF8040000968DF80500002049
:100280008DF806008DF80700042D0ED004DC012D3A
:1002900007D0022D0FD106E0082D08D0102D0AD16D
:1002A00007E0084C08E0084C06E0084C04E0084C65
:1002B00002E0084C00E000BF00BF6946204600F0A5
:1002C0000BF87CBD00000240000402400008024020
:1002D000000C024000100240F0B50A460021002345
:1002E000002400BF3DE0012505FA01F3156805EA89
:1002F00003049C4234D105684F000326BE40B54339
:10030000056015794E00B5400668354305601579DE
:10031000012D02D01579022D16D185684F000326D4
:10032000BE40B543856055794E00B540866835437B
:100330008560456801268E40B543456045689679DD
:100340008E40B6B235434560C5684F000326BE40B7
:10035000B543C560D5794E00B540C6683543C56024
:10036000491C1029BFD3F0BDF0B5002300244D0770
:10037000ED0E02FA05F3CE1000F1200555F82650D7
:100380004E07F70E0F26BE40B543CF1000F12006F2
:1003900046F82750CE1000F1200555F8265045EAC2
:1003A0000304CE1000F1200545F82640F0BD0A04F4
:1003B000826170478161704700BFFEE710B502217E
:1003C0000148FFF7F4FF10BD0000024000BFFEE748
:1003D0007047000000B589B00121084600F0AAF876
:1003E0004FF400510120FFF73DFF04210120FFF7EA
:1003F00039FF08210120FFF735FF4FF4006102208B
:10040000FFF730FF012200213F48FFF7ADFF012237
:1004100002213D48FFF7A8FF012203213A48FFF7D8
:10042000A3FF012203213948FFF79EFF2320ADF8E7
:1004300018000020ADF81A00632007900020ADF8E6
:1004400020008DF8220006A94FF0804000F02EFB1E
:1004500001A800F018FB6020ADF804000020ADF802
:1004600010000120ADF806000020039001A94FF014
:10047000804000F0BDF901A94FF0804000F000FA83
:1004800001A94FF0804000F05BFA01A94FF08040D5
:1004900000F0B0FA0821C80600F0E8F90821C80603
:1004A00000F040FA0821C80600F09AFA0821C806B0
:1004B00000F0DCFA0121880700F082F901218807A9
:1004C00000F08AF910210846FFF790FE4021102025
:1004D000FFF78CFE80210120FFF788FE20210120FC
:1004E000FFF784FE01210420FFF780FE0421084667
:1004F000FFF77CFE40210120FFF778FE102101204C
:10050000FFF774FE09B000BD000002400004024085
:100510007047000029B1064A12680243044B1A6072
:1005200004E0034A12688243014B1A6070470000DE
:100530003038024029B1064A12680243044B1A605F
:1005400004E0034A12688243014B1A6070470000BE
:1005500040380240704700000CB500200190009028
:100560003448006840F480303249086000BF3148A8
:10057000006800F4003000900198401C0190009841
:1005800018B90198B0F5A04FF1D12A48006800F4DD
:10059000003010B10120009001E000200090009890
:1005A000012846D123484030006840F0805021495E
:1005B000403108602048006840F440401E4908600F
:1005C0001C48083000681B4908310860084600686C
:1005D00040F4004008600846006840F4A0500860FD
:1005E0001648091F0860081F006840F08070091F46
:1005F000086000BF0F48006800F000700028F9D0C4
:1006000040F205700E4908600A480830006820F082
:1006100003000849083108600846006840F00200FD
:10062000086000BF03480830006800F00C0008288C
:10063000F8D10CBD0038024000700040195440074A
:10064000003C024010B50446002C0DDB10210D4883
:10065000FFF7ADFE40210B48FFF7ACFE21464FF0FF
:10066000804000F020FA0CE010210648FFF7A2FEBF
:1006700040210448FFF79BFE61424FF0804000F0AC
:1006800012FA10BD0010024010B50446002C0DDB1C
:1006900080210D48FFF78BFE20210B48FFF78AFED3
:1006A00021464FF0804000F0FCF90CE08021064824
:1006B000FFF780FE20210448FFF779FE61424FF0EA
:1006C000804000F0EEF910BD0000024010B5044675
:1006D000002C0DDB01210D48FFF769FE04210B48BA
:1006E000FFF768FE21464FF0804000F0D8F90CE09B
:1006F00001210648FFF75EFE04210448FFF757FE7C
:1007000061424FF0804000F0CAF910BD000802407D
:1007100010B50446002C0DDB40210D48FFF747FEC5
:1007200010210B48FFF746FE21464FF0804000F0B5
:10073000B4F90CE040210648FFF73CFE10210448C4
:10074000FFF735FE61424FF0804000F0A6F910BD82
:10075000000002407047000010B51548006840F4E2
:100760007000134908601348006840F00100114907
:10077000086000200F49083108600E4800680E49E3
:1007800008400C4908600D48091D0860081F0068F2
:1007900020F48020091F0860002006490C31086001
:1007A000FFF7DAFE4FF0006001498039086010BDA4
:1007B00088ED00E000380240FFFFF6FE1030002414
:1007C00021B1028842F08002028004E002884FF6E4
:1007D0007F731A400280704721B1028842F0010203
:1007E000028004E002884FF6FE731A4002807047D0
:1007F00070B5002400220023058C4FF6FE763540AC
:100800000584028C8388048B4FF68F752C40B51EAF
:100810002C400D882C43751E2A408D892A434D8813
:100820002A43104DA84202D00F4DA84213D14FF6D3
:10083000F7752A40CD892A434FF6FB752A408D88EB
:100840002A434FF6FF652B404FF6FF552B400D8A8C
:100850002B434D8A2B43838004838D684563028438
:1008600070BD000000000140000401400A46002164
:10087000018B4FF6F7731940114301837047000055
:1008800070B5002400220023058C4FF6EF7635402A
:100890000584028C8388048B48F6FF752C404FF644
:1008A000FF452C400D884FF6FF7606EA05252C43C0
:1008B0004FF6DF752A408D8906EA05152A434D88D3
:1008C00006EA05152A43154DA84202D0144DA84248
:1008D0001DD14FF67F752A40CD894FF6FF7606EA87
:1008E00005152A434FF6BF752A408D8806EA05157F
:1008F0002A434FF6FF352B404FF2FF752B400D8AF0
:1009000006EA85052B434D8A06EA85052B4383803D
:1009100004838D688563028470BD0000000001407F
:10092000000401400A460021018B4FF2FF73194079
:100930004FF6FF7303EA0223194301837047000057
:1009400070B5002400220023058C4FF6FF66354069
:100950000584028C8388848B4FF68F752C404FF66C
:10096000FC752C400D882C434FF6FF552A408D898D
:100970004FF6FF7606EA05252A434D8806EA052547
:100980002A43154DA84202D0144DA8421DD14FF262
:10099000FF752A40CD894FF6FF7606EA05252A43E2
:1009A0004FF6FF352A408D8806EA05252A434EF684
:1009B000FF752B404DF6FF752B400D8A06EA051595
:1009C0002B434D8A06EA05152B43838084838D686B
:1009D000C563028470BD00000000014000040140B6
:1009E0000A460021818B4FF6F7731940114381832A
:1009F0007047000070B5002200230024058C4EF6DD
:100A0000FF7635400584038C8488828B48F6FF7519
:100A10002A404FF6FF452A400D884FF6FF7606EA3A
:100A200005252A434DF6FF752B408D8906EA0535CD
:100A30002B434D8806EA05352B430A4DA84202D0C8
:100A4000094DA84208D14BF6FF752C400D8A4FF690
:100A5000FF7606EA85152C43848082838D680564C1
:100A6000038470BD00000140000401400A460021DB
:100A7000818B4FF2FF7319404FF6FF7303EA022395
:100A8000194381837047002101804180818081600A
:100A90008181C181018241827047416370478163D6
:100AA0007047C163704701647047000000220288EC
:100AB000184B98420ED0184B98420BD0B0F1804F93
:100AC00008D0164B984205D0154B984202D0154BD2
:100AD000984204D14FF68F731A404B881A43124B39
:100AE000984207D0114B984204D04FF6FF431A406A
:100AF0000B891A4302804B68C3620B880385054B40
:100B0000984202D0044B984201D18B7A038601238C
:100B1000838270470000014000040140000400404F
:100B200000080040000C004000100040001400408D
:100B300000BFFEE702E008C8121F08C1002AFAD170
:100B400070477047002001E001C1121F002AFBD14D
:100B5000704702210120FFF749FBFFF73BFC6420AF
:100B6000FFF770FD6420FFF78FFD6420FFF7AEFDF7
:100B70006420FFF7CDFDFFF721FC00BF01E0FFF788
:100B80001DFCFCE7940B000800000020000400009E
:040B9000440B00080A
:040000050800019D51
:00000001FF
