:020000040800F2
:10000000100400209D010008D1030008B903000876
:10001000CD030008E501000893100008000000006F
:1000200000000000000000000000000009070008B8
:10003000E9010008000000009D050008090900080A
:10004000B7010008B7010008B7010008B7010008B0
:10005000B7010008B7010008B7010008B7010008A0
:10006000B7010008B7010008B7010008B701000890
:10007000B7010008B7010008B7010008B701000880
:10008000B7010008B7010008B7010008B701000870
:10009000B7010008B7010008B7010008B701000860
:1000A000B7010008B7010008B7010008B701000850
:1000B000B7010008B7010008B7010008B701000840
:1000C000B7010008B7010008B7010008B701000830
:1000D000B7010008B7010008B7010008A50D000826
:1000E000B7010008B7010008B7010008B701000810
:1000F000B7010008B7010008B7010008B701000800
:10010000B7010008B7010008B7010008B7010008EF
:10011000B7010008B7010008B7010008B7010008DF
:10012000B7010008B7010008B7010008B7010008CF
:10013000B7010008B7010008B7010008B7010008BF
:10014000B7010008B7010008B7010008B7010008AF
:10015000B7010008B7010008B7010008B70100089F
:10016000B7010008B7010008B7010008B70100088F
:10017000B7010008B7010008B7010008B70100087F
:10018000B7010008B7010008DFF80CD000F018F83C
:1001900000480047D110000810040020064880479E
:1001A00006480047FEE7FEE7FEE7FEE7FEE7FEE75C
:1001B000FEE7FEE7FEE7FEE70D09000889010008FB
:1001C000064C074D06E0E06840F0010394E80700A4
:1001D00098471034AC42F6D3FFF7DAFF2411000839
:1001E0004411000800BFFEE7704700007CB50546DB
:1001F0000E460121284600F0D3F901208DF80400B5
:10020000009602208DF8050000208DF806008DF87C
:100210000700042D0ED004DC012D07D0022D0FD1D4
:1002200006E0082D08D0102D0AD107E0084C08E0A0
:10023000084C06E0084C04E0084C02E0084C00E0E2
:1002400000BF00BF6946204600F046F87CBD0000B4
:10025000000002400004024000080240000C02407E
:10026000001002407CB505460E460121284600F0EC
:1002700097F902208DF8040000968DF80500002003
:100280008DF806008DF80700042D0ED004DC012D3A
:1002900007D0022D0FD106E0082D08D0102D0AD16D
:1002A00007E0084C08E0084C06E0084C04E0084C65
:1002B00002E0084C00E000BF00BF6946204600F0A5
:1002C0000BF87CBD00000240000402400008024020
:1002D000000C024000100240F0B50A460021002345
:1002E000002400BF3DE0012505FA01F3156805EA89
:1002F00003049C4234D105684F000326BE40B54339
:10030000056015794E00B5400668354305601579DE
:10031000012D02D01579022D16D185684F000326D4
:10032000BE40B543856055794E00B540866835437B
:100330008560456801268E40B543456045689679DD
:100340008E40B6B235434560C5684F000326BE40B7
:10035000B543C560D5794E00B540C6683543C56024
:10036000491C1029BFD3F0BDF0B5002300244D0770
:10037000ED0E02FA05F3CE1000F1200555F82650D7
:100380004E07F70E0F26BE40B543CF1000F12006F2
:1003900046F82750CE1000F1200555F8265045EAC2
:1003A0000304CE1000F1200545F82640F0BD0A04F4
:1003B000826170478161704700BFFEE710B502217E
:1003C0000148FFF7F4FF10BD0000024000BFFEE748
:1003D0007047000070B5002100230F22C4781CB3C1
:1003E000174C246804F4E064C4F5E064C4F3072106
:1003F000C1F10404E3B20A4144789C40E1B284783C
:10040000144021430C07210E0E4C057861550478E9
:1004100004F01F050124AC4005786D11AD0005F115
:10042000E025C5F8004109E0047804F01F05012427
:10043000AC40054D0678761145F8264070BD0000A9
:100440000CED00E000E400E080E100E0024901433F
:10045000024A1160704700000000FA050CED00E050
:1004600000B589B00121084600F0AAF84FF4004118
:100470000120FFF7F7FE04210120FFF7F3FE08211A
:100480000120FFF7EFFE4FF400610220FFF7EAFEC4
:1004900001220F213F48FFF767FF012202213D485B
:1004A000FFF762FF012203213A48FFF75DFF0122B7
:1004B00003213948FFF758FF2320ADF8180000202A
:1004C000ADF81A00632007900020ADF820008DF8E9
:1004D000220006A94FF0804000F0C2FB01A800F006
:1004E000ACFB6020ADF804000020ADF81000012046
:1004F000ADF806000020039001A94FF0804000F005
:1005000051FA01A94FF0804000F094FA01A94FF090
:10051000804000F0EFFA01A94FF0804000F044FB6A
:100520000821C80600F07CFA0821C80600F0D4FAB9
:100530000821C80600F02EFB0821C80600F070FB59
:100540000121880700F016FA0121880700F01EFA41
:1005500010210846FFF74AFE40211020FFF746FE13
:1005600080210120FFF742FE20210120FFF73EFEFF
:1005700001210420FFF73AFE04210846FFF736FE6A
:1005800040210120FFF732FE10210120FFF72EFE4F
:1005900009B000BD000002400004024070470000A6
:1005A00029B1064A12680243044B1A6004E0034A68
:1005B00012688243014B1A607047000030380240D5
:1005C00029B1064A12680243044B1A6004E0034A48
:1005D00012688243014B1A607047000040380240A5
:1005E00029B1064A12680243044B1A6004E0034A28
:1005F00012688243014B1A607047000020380240A5
:1006000029B1064A12680243044B1A6004E0034A07
:1006100012688243014B1A60704700002438024080
:10062000F0B5002100220024022500260223324FCB
:100630003F6807F00C0121B1042905D0082937D102
:1006400005E02E4F076036E02D4F076033E02A4F5C
:100650003F1F3F68C7F38056274F3F1F3F6807F093
:100660003F036EB1264FB7FBF3F7DFF88CC0ACF158
:10067000040CDCF800C0CCF3881C07FB0CF40CE085
:100680001E4FB7FBF3F7DFF870C0ACF1040CDCF8D9
:1006900000C0CCF3881C07FB0CF4174F3F1F3F68CA
:1006A000C7F301477F1C7D00B4FBF5F7076002E04C
:1006B000124F076000BF00BF0F4F3F6807F0F00107
:1006C0000909104F7A5C0768D74047600A4F3F68B6
:1006D00007F4E051890A0B4F7A5C4768D74087607E
:1006E000054F3F6807F46041490B064F7A5C476845
:1006F000D740C760F0BD0000083802400024F40075
:1007000000127A0000000020704700000CB50020A5
:10071000019000903448006840F48030324908600D
:1007200000BF3148006800F4003000900198401C80
:100730000190009818B90198B0F5A04FF1D12A485E
:10074000006800F4003010B10120009001E00020AA
:1007500000900098012846D123484030006840F0BE
:1007600080502149403108602048006840F44040F2
:100770001E4908601C48083000681B4908310860A1
:100780000846006840F4004008600846006840F4ED
:10079000A05008601648091F0860081F006840F054
:1007A0008070091F086000BF0F48006800F00070EB
:1007B0000028F9D040F205700E4908600A48083058
:1007C000006820F003000849083108600846006806
:1007D00040F00200086000BF03480830006800F0E5
:1007E0000C000828F8D10CBD003802400070004011
:1007F00008544007003C024010B50446002C0DDBB5
:1008000010210D48FFF7D3FD40210B48FFF7D2FD23
:1008100021464FF0804000F020FA0CE010210648FD
:10082000FFF7C8FD40210448FFF7C1FD61424FF0CA
:10083000804000F012FA10BD0010024010B50446CE
:10084000002C0DDB80210D48FFF7B1FD20210B4866
:10085000FFF7B0FD21464FF0804000F0FCF90CE0BE
:1008600080210648FFF7A6FD20210448FFF79FFDE1
:1008700061424FF0804000F0EEF910BD00000240F0
:1008800010B50446002C0DDB01210D48FFF78FFD4C
:1008900004210B48FFF78EFD21464FF0804000F009
:1008A000D8F90CE001210648FFF784FD0421044833
:1008B000FFF77DFD61424FF0804000F0CAF910BDA6
:1008C0000008024010B50446002C0DDB40210D4805
:1008D000FFF76DFD10210B48FFF76CFD21464FF02F
:1008E000804000F0B4F90CE040210648FFF762FDBB
:1008F00010210448FFF75BFD61424FF0804000F09B
:10090000A6F910BD000002407047000010B5154860
:10091000006840F47000134908601348006840F014
:1009200001001149086000200F49083108600E4895
:1009300000680E4908400C4908600D48091D086010
:10094000081F006820F48020091F08600020064965
:100950000C310860FFF7DAFE4FF000600149803982
:10096000086010BD88ED00E000380240FFFFF6FE91
:100970001030002421B1028842F08002028004E09D
:1009800002884FF67F731A400280704721B10288B7
:1009900042F00102028004E002884FF6FE731A4022
:1009A0000280704770B5002400220023058C4FF6AA
:1009B000FE7635400584028C8388048B4FF68F7554
:1009C0002C40B51E2C400D882C43751E2A408D8965
:1009D0002A434D882A43104DA84202D00F4DA84209
:1009E00013D14FF6F7752A40CD892A434FF6FB7590
:1009F0002A408D882A434FF6FF652B404FF6FF555E
:100A00002B400D8A2B434D8A2B43838004838D68B2
:100A10004563028470BD00000000014000040140F5
:100A20000A460021018B4FF6F773194011430183E9
:100A30007047000070B5002400220023058C4FF69B
:100A4000EF7635400584028C8388048B48F6FF7569
:100A50002C404FF6FF452C400D884FF6FF7606EAF6
:100A600005252C434FF6DF752A408D8906EA0515CA
:100A70002A434D8806EA05152A43154DA84202D09F
:100A8000144DA8421DD14FF67F752A40CD894FF6EF
:100A9000FF7606EA05152A434FF6BF752A408D8872
:100AA00006EA05152A434FF6FF352B404FF2FF7536
:100AB0002B400D8A06EA85052B434D8A06EA8505FB
:100AC0002B43838004838D688563028470BD00009E
:100AD00000000140000401400A460021018B4FF252
:100AE000FF7319404FF6FF7303EA02231943018392
:100AF0007047000070B5002400220023058C4FF6DB
:100B0000FF6635400584028C8388848B4FF68F7591
:100B10002C404FF6FC752C400D882C434FF6FF55AA
:100B20002A408D894FF6FF7606EA05252A434D882F
:100B300006EA05252A43154DA84202D0144DA842C5
:100B40001DD14FF2FF752A40CD894FF6FF7606EA98
:100B500005252A434FF6FF352A408D8806EA0525EC
:100B60002A434EF6FF752B404DF6FF752B400D8A3C
:100B700006EA05152B434D8A06EA05152B438380AB
:100B800084838D68C563028470BD0000000001404D
:100B9000000401400A460021818B4FF6F77319408B
:100BA000114381837047000070B5002200230024A8
:100BB000058C4EF6FF7635400584038C8488828B45
:100BC00048F6FF752A404FF6FF452A400D884FF63C
:100BD000FF7606EA05252A434DF6FF752B408D89E1
:100BE00006EA05352B434D8806EA05352B430A4DA9
:100BF000A84202D0094DA84208D14BF6FF752C40FF
:100C00000D8A4FF6FF7606EA85152C438480828391
:100C10008D680564038470BD00000140000401403C
:100C20000A460021818B4FF2FF7319404FF6FF7384
:100C300003EA022319438183704700210180418028
:100C4000818081608181C1810182418270474163DD
:100C5000704781637047C16370470164704700004B
:100C600000220288184B98420ED0184B98420BD0A5
:100C7000B0F1804F08D0164B984205D0154B9842E2
:100C800002D0154B984204D14FF68F731A404B880F
:100C90001A43124B984207D0114B984204D04FF69A
:100CA000FF431A400B891A4302804B68C3620B88CA
:100CB0000385054B984202D0044B984201D18B7AB0
:100CC0000386012383827047000001400004014035
:100CD0000004004000080040000C004000100040EC
:100CE0000014004000B587B001210420FFF758FC34
:100CF00001218804FFF764FC02208DF818008002AF
:100D0000059002208DF8190001208DF81A000020AE
:100D10008DF81B0005A92148FFF7DEFA02208DF8A7
:100D200018004002059002208DF8190000208DF86F
:100D30001A0001208DF81B0005A91848FFF7CCFA0E
:100D400007220B211548FFF70FFB07220A21134842
:100D5000FFF70AFB124800F07FF84FF4165001909D
:100D60000020ADF80800ADF80A00ADF80C000C202A
:100D7000ADF80E000020ADF8100001A9084800F001
:100D800015F9012240F22551054800F0EAF8012149
:100D9000034800F055F807B000BD0000000802400D
:100DA0000048004010B52021084800F0CDF838B1C7
:100DB000064800F065F9C4B22146044800F01BF86B
:100DC00040F22551014800F02CF810BD00480040C9
:100DD00008B54FF4C060FFF739FB27208DF80000FD
:100DE00001208DF801008DF802008DF8030068469F
:100DF000FFF7F0FA08BD70B504460D4600BF80212C
:100E0000204600F0A1F80028F9D02946204600F03D
:100E10003CF900BF4021204600F096F80028F9D0A8
:100E200070BD10B50022002340F66A14A14200D123
:100E300000BF0A1201249440A3B2DC43048010BD19
:100E400021B1828942F40052828104E082894DF608
:100E5000FF731A408281704710B5044632488442BD
:100E600008D101211020FFF7CBFB00211020FFF754
:100E7000C7FB57E02D48844209D101214804FFF700
:100E8000AFFB00214FF40030FFF7AAFB4AE02848EF
:100E9000844209D101218804FFF7A2FB00214FF40D
:100EA0008020FFF79DFB3DE02248844209D10121CB
:100EB000C804FFF795FB00214FF40020FFF790FBDB
:100EC00030E01D48844209D101210805FFF788FB65
:100ED00000214FF48010FFF783FB23E01748844282
:100EE00008D101212020FFF78BFB00212020FFF7F4
:100EF00087FB17E01248844209D101218807FFF7D8
:100F00006FFB00214FF08040FFF76AFB0AE00D48BD
:100F1000844207D101214005FFF762FB00216005F3
:100F2000FFF75EFB10BD00000010014000440040D0
:100F300000480040004C00400050004000140140B8
:100F400000780040007C004002460020B1F5007FA0
:100F500000D100BF13880B400BB1012000E000203E
:100F60007047F0B50346002400260025002040F617
:100F70006A17B94200D100BF1846C1F3421401F00C
:100F80001F06012707FA06F5012C01D10C3004E0F9
:100F9000022C01D1103000E014301AB107682F4341
:100FA000076002E00768AF430760F0BD2DE9FF4727
:100FB00005460E460024A14600BFA046B08900B1F8
:100FC00000BF2C8A24F44054F08804432C82AC895E
:100FD00041F20C608443B088318908437189084329
:100FE0000443AC81AC8A24F44074B0890443AC82DD
:100FF0006846FFF715FB2048854202D01F4885420E
:1010000002D1DDF80C9001E0DDF80890A88900F429
:10101000004040B109EBC90000EB091031684900FC
:10102000B0FBF1F707E009EBC90000EB09103168EC
:101030008900B0FBF1F76420B7FBF0F00401200950
:10104000642101FB1078A88900F4004040B13220EF
:1010500000EBC800B0FBF1F000F00700044308E02B
:10106000322000EB08106421B0FBF1F000F00F001B
:1010700004432C81BDE8FF870010014000140140AB
:1010800001468888C0F308007047C1F308028280D7
:10109000704700BFFEE702E008C8121F08C1002A1F
:1010A000FAD170477047002001E001C1121F002AE9
:1010B000FBD170479FED050A80ED010A9FED030A01
:1010C00080ED020A00210160C1607047000000004D
:1010D00090B002210120FFF789F8FFF779FEFFF7B2
:1010E00001FE0CA8FFF7E6FF08A8FFF7E3FF04A83E
:1010F000FFF7E0FF6846FFF7DDFFFFF7B1F90020DB
:10110000FFF77AFB0020FFF799FB0020FFF7B8FB01
:101110000020FFF7D7FBFFF751F900BF01E0FFF711
:101120004DF9FCE744110008000000201000000009
:101130009610000854110008100000200004000060
:10114000A6100008000000000102030401020304CD
:04115000060708097D
:040000050800019D51
:00000001FF
