:020000040800F2
:10000000180400209D010008E1030008B90300085E
:10001000DD030008E50100088B1200080000000065
:1000200000000000000000000000000019070008A8
:10003000E901000800000000AD050008E109000822
:10004000B7010008B7010008B7010008B7010008B0
:10005000B7010008B7010008B7010008B7010008A0
:10006000B7010008B7010008B7010008B701000890
:10007000B7010008B7010008B7010008B701000880
:10008000B7010008B7010008B7010008B701000870
:10009000B7010008B7010008B7010008B701000860
:1000A000B7010008B7010008B7010008B701000850
:1000B000B7010008B7010008B7010008B701000840
:1000C000B7010008B7010008B7010008B701000830
:1000D000B7010008B7010008B70100083D0F00088C
:1000E000B7010008B7010008B7010008B701000810
:1000F000B7010008B7010008B7010008B701000800
:10010000B7010008B7010008B7010008B7010008EF
:10011000B7010008B7010008B7010008B7010008DF
:10012000B7010008B7010008B7010008B7010008CF
:10013000B7010008B7010008B7010008B7010008BF
:10014000B7010008B7010008B7010008B7010008AF
:10015000B7010008B7010008B7010008B70100089F
:10016000B7010008B7010008B7010008B70100088F
:10017000B7010008B7010008B7010008B70100087F
:10018000B7010008B7010008DFF80CD000F018F83C
:100190000048004701130008180400200648804763
:1001A00006480047FEE7FEE7FEE7FEE7FEE7FEE75C
:1001B000FEE7FEE7FEE7FEE7E50900088901000823
:1001C000064C074D06E0E06840F0010394E80700A4
:1001D00098471034AC42F6D3FFF7DAFFD813000883
:1001E000F813000800BFFEE7704700007CB5054625
:1001F0000E460121284600F0DBF901208DF80400AD
:10020000009602208DF8050000208DF806008DF87C
:100210000700042D0ED004DC012D07D0022D0FD1D4
:1002200006E0082D08D0102D0AD107E0084C08E0A0
:10023000084C06E0084C04E0084C02E0084C00E0E2
:1002400000BF00BF6946204600F046F87CBD0000B4
:10025000000002400004024000080240000C02407E
:10026000001002407CB505460E460121284600F0EC
:100270009FF902208DF8040000968DF805000020FB
:100280008DF806008DF80700042D0ED004DC012D3A
:1002900007D0022D0FD106E0082D08D0102D0AD16D
:1002A00007E0084C08E0084C06E0084C04E0084C65
:1002B00002E0084C00E000BF00BF6946204600F0A5
:1002C0000BF87CBD00000240000402400008024020
:1002D000000C024000100240F0B50A460021002345
:1002E000002400BF3DE0012505FA01F3156805EA89
:1002F00003049C4234D105684F000326BE40B54339
:10030000056015794E00B5400668354305601579DE
:10031000012D02D01579022D16D185684F000326D4
:10032000BE40B543856055794E00B540866835437B
:100330008560456801268E40B543456045689679DD
:100340008E40B6B235434560C5684F000326BE40B7
:10035000B543C560D5794E00B540C6683543C56024
:10036000491C1029BFD3F0BDF0B5002300244D0770
:10037000ED0E02FA05F3CE1000F1200555F82650D7
:100380004E07F70E0F26BE40B543CF1000F12006F2
:1003900046F82750CE1000F1200555F8265045EAC2
:1003A0000304CE1000F1200545F82640F0BD0A04F4
:1003B000826170478161704700BFFEE710B502217E
:1003C0000148FFF7F7FF10BD0000024010B5022101
:1003D0000148FFF7ECFF10BD0000024000BFFEE740
:1003E0007047000070B5002100230F22C4781CB3B1
:1003F000174C246804F4E064C4F5E064C4F30721F6
:10040000C1F10404E3B20A4144789C40E1B284782B
:10041000144021430C07210E0E4C057861550478D9
:1004200004F01F050124AC4005786D11AD0005F105
:10043000E025C5F8004109E0047804F01F05012417
:10044000AC40054D0678761145F8264070BD000099
:100450000CED00E000E400E080E100E0024901432F
:10046000024A1160704700000000FA050CED00E040
:1004700000B589B00121084600F0AAF84FF4004108
:100480000120FFF7EFFE04210120FFF7EBFE08211A
:100490000120FFF7E7FE08210220FFF7E3FE01221B
:1004A0000F214048FFF760FF012202213D48FFF77E
:1004B0005BFF012203213B48FFF756FF0122032186
:1004C0003948FFF751FF2320ADF818000020ADF8A0
:1004D0001A00632007900020ADF820008DF822005C
:1004E00006A94FF0804000F027FC01A800F011FCA5
:1004F0006020ADF804000020ADF810000120ADF838
:1005000006000020039001A94FF0804000F0B6FAE9
:1005100001A94FF0804000F0F9FA01A94FF08040A6
:1005200000F054FB01A94FF0804000F0A9FB082126
:10053000C80600F0E1FA0821C80600F039FB0821DE
:10054000C80600F093FB0821C80600F0D5FB012186
:10055000880700F07BFA0121880700F083FA102158
:100560000846FFF743FE40211020FFF73FFE8021A1
:100570000120FFF73BFE20210120FFF737FE01217C
:100580000420FFF733FE04210846FFF72FFE402129
:100590000120FFF72BFE10210120FFF727FE09B0F5
:1005A00000BD00000000024000040240704700004F
:1005B00029B1064A12680243044B1A6004E0034A58
:1005C00012688243014B1A607047000030380240C5
:1005D00029B1064A12680243044B1A6004E0034A38
:1005E00012688243014B1A60704700004038024095
:1005F00029B1064A12680243044B1A6004E0034A18
:1006000012688243014B1A60704700002038024094
:1006100029B1064A12680243044B1A6004E0034AF7
:1006200012688243014B1A60704700002438024070
:10063000F0B5002100220024022500260223324FBB
:100640003F6807F00C0121B1042905D0082937D1F2
:1006500005E02E4F076036E02D4F076033E02A4F4C
:100660003F1F3F68C7F38056274F3F1F3F6807F083
:100670003F036EB1264FB7FBF3F7DFF88CC0ACF148
:10068000040CDCF800C0CCF3881C07FB0CF40CE075
:100690001E4FB7FBF3F7DFF870C0ACF1040CDCF8C9
:1006A00000C0CCF3881C07FB0CF4174F3F1F3F68BA
:1006B000C7F301477F1C7D00B4FBF5F7076002E03C
:1006C000124F076000BF00BF0F4F3F6807F0F001F7
:1006D0000909104F7A5C0768D74047600A4F3F68A6
:1006E00007F4E051890A0B4F7A5C4768D74087606E
:1006F000054F3F6807F46041490B064F7A5C476835
:10070000D740C760F0BD0000083802400024F40064
:1007100000127A0000000020704700000CB5002095
:10072000019000903448006840F4803032490860FD
:1007300000BF3148006800F4003000900198401C70
:100740000190009818B90198B0F5A04FF1D12A484E
:10075000006800F4003010B10120009001E000209A
:1007600000900098012846D123484030006840F0AE
:1007700080502149403108602048006840F44040E2
:100780001E4908601C48083000681B490831086091
:100790000846006840F4004008600846006840F4DD
:1007A000A05008601648091F0860081F006840F044
:1007B0008070091F086000BF0F48006800F00070DB
:1007C0000028F9D040F205700E4908600A48083048
:1007D000006820F0030008490831086008460068F6
:1007E00040F00200086000BF03480830006800F0D5
:1007F0000C000828F8D10CBD003802400070004001
:1008000008544007003C024010B53A2000F010F8B0
:100810003A2000F02FF83A2000F04EF83A2000F08D
:100820006DF800200149086010BD00001400002090
:1008300010B50446002C0DDB10210D48FFF7B7FD65
:1008400040210B48FFF7B6FD21464FF0804000F0F5
:1008500070FA0CE010210648FFF7ACFD4021044877
:10086000FFF7A5FD61424FF0804000F062FA10BD35
:100870000010024010B50446002C0DDB80210D480D
:10088000FFF795FD20210B48FFF794FD21464FF01F
:10089000804000F04CFA0CE080210648FFF78AFD0A
:1008A00020210448FFF783FD61424FF0804000F0B3
:1008B0003EFA10BD0000024010B50446002C0DDBCE
:1008C00001210D48FFF773FD04210B48FFF772FD6E
:1008D00021464FF0804000F028FA0CE00121064844
:1008E000FFF768FD04210448FFF761FD61424FF006
:1008F000804000F01AFA10BD0008024010B504460E
:10090000002C0DDB40210D48FFF751FD10210B4855
:10091000FFF750FD21464FF0804000F004FA0CE054
:1009200040210648FFF746FD10210448FFF73FFD30
:1009300061424FF0804000F0F6F910BD0000024027
:1009400010B53A20FFF774FF3A20FFF793FF3A20E3
:10095000FFF7B2FF3A20FFF7D1FF002001490860FE
:1009600010BD00001400002010B50020FFF760FF4C
:100970000020FFF77FFF0020FFF79EFF0020FFF71A
:10098000BDFF4FF0FF300149086010BD140000208A
:1009900010B54620FFF74CFF4620FFF76BFF4620BF
:1009A000FFF78AFF4620FFF7A9FF012001490860F1
:1009B00010BD00001400002010B54620FFF738FFDE
:1009C0004620FFF757FF4620FFF776FF4620FFF748
:1009D00095FF01200149086010BD000014000020AF
:1009E0007047000010B51548006840F470001349C6
:1009F00008601348006840F00100114908600020B9
:100A00000F49083108600E4800680E4908400C493B
:100A100008600D48091D0860081F006820F4802048
:100A2000091F0860002006490C310860FFF776FEB8
:100A30004FF0006001498039086010BD88ED00E08A
:100A400000380240FFFFF6FE1030002421B102887A
:100A500042F08002028004E002884FF67F731A4061
:100A60000280704721B1028842F00102028004E056
:100A700002884FF6FE731A400280704770B500245A
:100A800000220023058C4FF6FE7635400584028C4B
:100A90008388048B4FF68F752C40B51E2C400D8833
:100AA0002C43751E2A408D892A434D882A43104DB8
:100AB000A84202D00F4DA84213D14FF6F7752A4035
:100AC000CD892A434FF6FB752A408D882A434FF67D
:100AD000FF652B404FF6FF552B400D8A2B434D8A67
:100AE0002B43838004838D684563028470BD0000BE
:100AF00000000140000401400A460021018B4FF62E
:100B0000F7731940114301837047000070B500244A
:100B100000220023058C4FF6EF7635400584028CC9
:100B20008388048B48F6FF752C404FF6FF452C4018
:100B30000D884FF6FF7606EA05252C434FF6DF7544
:100B40002A408D8906EA05152A434D8806EA0515CF
:100B50002A43154DA84202D0144DA8421DD14FF68C
:100B60007F752A40CD894FF6FF7606EA05152A43A0
:100B70004FF6BF752A408D8806EA05152A434FF6C1
:100B8000FF352B404FF2FF752B400D8A06EA850595
:100B90002B434D8A06EA85052B43838004838D68A9
:100BA0008563028470BD0000000001400004014024
:100BB0000A460021018B4FF2FF7319404FF6FF7375
:100BC00003EA0223194301837047000070B5002433
:100BD00000220023058C4FF6FF6635400584028C09
:100BE0008388848B4FF68F752C404FF6FC752C4014
:100BF0000D882C434FF6FF552A408D894FF6FF761E
:100C000006EA05252A434D8806EA05252A43154D9F
:100C1000A84202D0144DA8421DD14FF2FF752A40C0
:100C2000CD894FF6FF7606EA05252A434FF6FF35B4
:100C30002A408D8806EA05252A434EF6FF752B408B
:100C40004DF6FF752B400D8A06EA05152B434D8A9C
:100C500006EA05152B43838084838D68C56302846F
:100C600070BD000000000140000401400A46002160
:100C7000818B4FF6F7731940114381837047000051
:100C800070B5002200230024058C4EF6FF76354017
:100C90000584038C8488828B48F6FF752A404FF6C2
:100CA000FF452A400D884FF6FF7606EA05252A43C0
:100CB0004DF6FF752B408D8906EA05352B434D888F
:100CC00006EA05352B430A4DA84202D0094DA84239
:100CD00008D14BF6FF752C400D8A4FF6FF7606EAD9
:100CE00085152C43848082838D680564038470BDE0
:100CF00000000140000401400A460021818B4FF2B0
:100D0000FF7319404FF6FF7303EA022319438183EF
:100D10007047002101804180818081608181C18193
:100D20000182418270474163704781637047C163AC
:100D3000704701647047000000220288184B9842F7
:100D40000ED0184B98420BD0B0F1804F08D0164B04
:100D5000984205D0154B984202D0154B984204D1C9
:100D60004FF68F731A404B881A43124B984207D0A4
:100D7000114B984204D04FF6FF431A400B891A4397
:100D800002804B68C3620B880385054B984202D0F2
:100D9000044B984201D18B7A0386012383827047EA
:100DA0000000014000040140000400400008004031
:100DB000000C0040001000400014004010B5164820
:100DC0000068401C00B910BD13480068012801D11B
:100DD000FFF71AFD4120FFF72BFD5A20FFF74AFDD0
:100DE0004120FFF769FD5A20FFF788FD4FF4FA70A4
:100DF00000F05CFA3A20FFF71BFD3A20FFF73AFDBE
:100E00003A20FFF759FD3A20FFF778FD002002490C
:100E1000086000BFD7E700001400002010B5164896
:100E20000068401C00B910BD13480068012801D1BA
:100E3000FFF7EAFC5A20FFF7FBFC4120FFF71AFD01
:100E40005A20FFF739FD4120FFF758FD4FF4FA70A3
:100E500000F02CFA3A20FFF7EBFC3A20FFF70AFDEE
:100E60003A20FFF729FD3A20FFF748FD002002490C
:100E7000086000BFD7E700001400002000B587B06D
:100E800001210420FFF794FB01218804FFF7A0FB58
:100E900002208DF818008002059002208DF81900BC
:100EA00001208DF81A0000208DF81B0005A92148AB
:100EB000FFF712FA02208DF8180040020590022078
:100EC0008DF8190000208DF81A0001208DF81B0004
:100ED00005A91848FFF700FA07220B211548FFF76C
:100EE00043FA07220A211348FFF73EFA124800F09E
:100EF000B3F84FF4E13001900020ADF80800ADF8F0
:100F00000A00ADF80C000C20ADF80E000020ADF882
:100F1000100001A9084800F049F9012240F22551CA
:100F2000054800F01EF90121034800F089F807B0D8
:100F300000BD0000000802400048004010B520211C
:100F40002B4800F001F918B1294800F099F9C4B212
:100F500040F22551264800F064F826480068012830
:100F60001AD1032C14D0FFF713FD4FF480512248FF
:100F7000FFF720FA4FF480611F48FFF71BFA4FF488
:100F800080711D48FFF716FA00201A4908602DE00D
:100F900001201849086029E0062C25D2DFE804F07A
:100FA00024030B131E21FFF707FD4FF48051124855
:100FB000FFF700FA19E0FFF727FC4FF480610E48B5
:100FC000FFF7F8F911E0FFF7CFFC4FF480710A4802
:100FD000FFF7F0F901200749086006E0FFF7EEFE91
:100FE00003E0FFF71BFF00E000BF00BF10BD0000E3
:100FF0000048004010000020000C024008B54FF4EB
:10100000C060FFF72BFA27208DF8000001208DF833
:1010100001008DF802008DF803006846FFF7E2F941
:1010200008BD10B50022002340F66A14A14200D189
:1010300000BF0A1201249440A3B2DC43048010BD17
:1010400021B1828942F40052828104E082894DF606
:10105000FF731A408281704710B5044632488442BB
:1010600008D101211020FFF7D3FA00211020FFF74B
:10107000CFFA57E02D48844209D101214804FFF7F7
:10108000B7FA00214FF40030FFF7B2FA4AE02848DF
:10109000844209D101218804FFF7AAFA00214FF404
:1010A0008020FFF7A5FA3DE02248844209D10121C2
:1010B000C804FFF79DFA00214FF40020FFF798FACB
:1010C00030E01D48844209D101210805FFF790FA5C
:1010D00000214FF48010FFF78BFA23E01748844279
:1010E00008D101212020FFF793FA00212020FFF7EB
:1010F0008FFA17E01248844209D101218807FFF7CF
:1011000077FA00214FF08040FFF772FA0AE00D48AD
:10111000844207D101214005FFF76AFA00216005EA
:10112000FFF766FA10BD00000010014000440040C7
:1011300000480040004C00400050004000140140B6
:1011400000780040007C004002460020B1F5007F9E
:1011500000D100BF13880B400BB1012000E000203C
:101160007047F0B50346002400260025002040F615
:101170006A17B94200D100BF1846C1F3421401F00A
:101180001F06012707FA06F5012C01D10C3004E0F7
:10119000022C01D1103000E014301AB107682F433F
:1011A000076002E00768AF430760F0BD2DE9FF4725
:1011B00005460E460024A14600BFA046B08900B1F6
:1011C00000BF2C8A24F44054F08804432C82AC895C
:1011D00041F20C608443B088318908437189084327
:1011E0000443AC81AC8A24F44074B0890443AC82DB
:1011F0006846FFF71DFA2048854202D01F48854205
:1012000002D1DDF80C9001E0DDF80890A88900F427
:10121000004040B109EBC90000EB091031684900FA
:10122000B0FBF1F707E009EBC90000EB09103168EA
:101230008900B0FBF1F76420B7FBF0F0040120094E
:10124000642101FB1078A88900F4004040B13220ED
:1012500000EBC800B0FBF1F000F00700044308E029
:10126000322000EB08106421B0FBF1F000F00F0019
:1012700004432C81BDE8FF870010014000140140A9
:1012800001468888C0F30800704700BFFEE702E00F
:1012900008C8121F08C1002AFAD170477047002001
:1012A00001E001C1121F002AFBD17047014645F23F
:1012B00008224A434FF0E0235A6100229A6101223A
:1012C0001A6100BF4FF0E022106900F001021AB16C
:1012D00000F48032002AF5D000224FF0E0231A619A
:1012E0009A6170479FED050A80ED010A9FED030AA0
:1012F00080ED020A00210160C1607047000000001B
:1013000090B002210120FEF771FF4FF48071082098
:10131000FEF76CFF4FF480610820FEF767FF4FF483
:1013200080510820FEF762FFFFF768FEFFF7A6FD79
:101330000CA8FFF7D7FF08A8FFF7D4FF04A8FFF712
:10134000D1FF6846FFF7CEFFFFF792F84FF4FA702F
:10135000FFF7ACFF4FF4FA70FFF7A8FF4FF4FA70F5
:10136000FFF7A4FF4FF4FA70FFF7A0FF4FF4FA70F5
:10137000FFF79CFF4FF4FA70FFF798FFFFF7E0FAD2
:1013800000201349086022E04FF4FA70FFF78EFF47
:101390004FF4FA70FFF78AFFFFF718F84FF4FA706E
:1013A000FFF784FF4FF4FA70FFF780FFFFF706F8AE
:1013B0004FF480710748FEF7FAFF4FF4806105484B
:1013C000FEF7F5FF4FF480510248FEF7F0FFDBE730
:1013D00010000020000C0240F8130008000000205C
:1013E000180000008E1200081014000818000020D9
:1013F000000400009E120008000000000102030427
:1014000001020304060708090000000000000000B4
:040000050800019D51
:00000001FF
